{
  "address": "0xcafBD0e3487C42B12417009165494c922393b42B",
  "abi": [
    {
      "inputs": [
        {
          "internalType": "address",
          "name": "initialOwner",
          "type": "address"
        }
      ],
      "stateMutability": "nonpayable",
      "type": "constructor"
    },
    {
      "inputs": [
        {
          "internalType": "uint256",
          "name": "_i",
          "type": "uint256"
        }
      ],
      "name": "calculateTransfers",
      "outputs": [],
      "stateMutability": "nonpayable",
      "type": "function"
    },
    {
      "inputs": [
        {
          "internalType": "bool",
          "name": "_selectedProject",
          "type": "bool"
        },
        {
          "internalType": "uint256",
          "name": "_i",
          "type": "uint256"
        }
      ],
      "name": "getAddress",
      "outputs": [
        {
          "internalType": "address[]",
          "name": "",
          "type": "address[]"
        }
      ],
      "stateMutability": "view",
      "type": "function"
    },
    {
      "inputs": [
        {
          "internalType": "bool",
          "name": "_selectedProject",
          "type": "bool"
        },
        {
          "internalType": "uint256",
          "name": "_i",
          "type": "uint256"
        }
      ],
      "name": "getExpenses",
      "outputs": [
        {
          "components": [
            {
              "internalType": "string",
              "name": "expenseDesc",
              "type": "string"
            },
            {
              "internalType": "address",
              "name": "expender",
              "type": "address"
            },
            {
              "internalType": "uint256",
              "name": "value",
              "type": "uint256"
            }
          ],
          "internalType": "struct SplitCoin.Expense[]",
          "name": "",
          "type": "tuple[]"
        }
      ],
      "stateMutability": "view",
      "type": "function"
    },
    {
      "inputs": [
        {
          "internalType": "address",
          "name": "_sender",
          "type": "address"
        }
      ],
      "name": "getProjects",
      "outputs": [
        {
          "internalType": "string[]",
          "name": "",
          "type": "string[]"
        }
      ],
      "stateMutability": "view",
      "type": "function"
    },
    {
      "inputs": [
        {
          "internalType": "uint256",
          "name": "_index",
          "type": "uint256"
        }
      ],
      "name": "getSmartContract",
      "outputs": [
        {
          "internalType": "contract SplitCoin",
          "name": "",
          "type": "address"
        }
      ],
      "stateMutability": "view",
      "type": "function"
    },
    {
      "inputs": [
        {
          "internalType": "bool",
          "name": "_selectedProject",
          "type": "bool"
        },
        {
          "internalType": "uint256",
          "name": "_i",
          "type": "uint256"
        }
      ],
      "name": "getTransfers",
      "outputs": [
        {
          "components": [
            {
              "internalType": "address",
              "name": "from",
              "type": "address"
            },
            {
              "internalType": "address",
              "name": "to",
              "type": "address"
            },
            {
              "internalType": "uint256",
              "name": "value",
              "type": "uint256"
            }
          ],
          "internalType": "struct SplitCoin.TransferMov[]",
          "name": "",
          "type": "tuple[]"
        }
      ],
      "stateMutability": "view",
      "type": "function"
    },
    {
      "inputs": [
        {
          "internalType": "string",
          "name": "_projectDesc",
          "type": "string"
        }
      ],
      "name": "newProject",
      "outputs": [],
      "stateMutability": "nonpayable",
      "type": "function"
    },
    {
      "inputs": [
        {
          "internalType": "uint256",
          "name": "",
          "type": "uint256"
        }
      ],
      "name": "projectArr",
      "outputs": [
        {
          "internalType": "string",
          "name": "projectDesc",
          "type": "string"
        },
        {
          "internalType": "contract SplitCoin",
          "name": "splitCoin",
          "type": "address"
        }
      ],
      "stateMutability": "view",
      "type": "function"
    },
    {
      "inputs": [
        {
          "internalType": "address",
          "name": "_participant",
          "type": "address"
        },
        {
          "internalType": "uint256",
          "name": "_i",
          "type": "uint256"
        }
      ],
      "name": "saveAddress",
      "outputs": [],
      "stateMutability": "nonpayable",
      "type": "function"
    },
    {
      "inputs": [
        {
          "internalType": "string",
          "name": "_desc",
          "type": "string"
        },
        {
          "internalType": "uint256",
          "name": "_value",
          "type": "uint256"
        },
        {
          "internalType": "uint256",
          "name": "_i",
          "type": "uint256"
        },
        {
          "internalType": "address",
          "name": "_expender",
          "type": "address"
        }
      ],
      "name": "saveExpenses",
      "outputs": [],
      "stateMutability": "nonpayable",
      "type": "function"
    },
    {
      "inputs": [
        {
          "internalType": "address",
          "name": "_from",
          "type": "address"
        },
        {
          "internalType": "address payable",
          "name": "_to",
          "type": "address"
        },
        {
          "internalType": "uint256",
          "name": "_i",
          "type": "uint256"
        }
      ],
      "name": "sendMoney",
      "outputs": [],
      "stateMutability": "payable",
      "type": "function"
    }
  ],
  "transactionHash": "0x943d23ed0eb0d794ddffc1f7ae96bc416c66107d339c2fb6403106eb7432695f",
  "args": [
    "0x044f9701130dE90e06F0b4A06D7562e2aB1Ed259"
  ],
  "numDeployments": 1,
  "solcInputHash": "b329fe7fd85f60ac9553a0c6c0b3cf78",
  "bytecode": "0x608060405234801561001057600080fd5b5060405162004b8938038062004b8983398101604081905261003191610037565b50610067565b60006020828403121561004957600080fd5b81516001600160a01b038116811461006057600080fd5b9392505050565b614b1280620000776000396000f3fe608060405260043610620000a95760003560e01c8063a41e095d116200006c578063a41e095d146200019f578063ae34258214620001d3578063dc369a6614620001ea578063e1cac57b1462000228578063f6896b3f146200024d578063f7b09550146200028257600080fd5b8063149b6be214620000ae5780634928689114620000eb5780635be0b35a146200011f5780637f491a07146200014657806386e72c33146200017a575b600080fd5b348015620000bb57600080fd5b50620000d3620000cd36600462001076565b620002a7565b604051620000e29190620010a9565b60405180910390f35b348015620000f857600080fd5b50620001106200010a36600462001076565b620003cc565b604051620000e2919062001164565b3480156200012c57600080fd5b50620001446200013e366004620011f2565b62000488565b005b3480156200015357600080fd5b506200016b6200016536600462001076565b62000531565b604051620000e291906200120c565b3480156200018757600080fd5b50620001446200019936600462001271565b620005ed565b348015620001ac57600080fd5b50620001c4620001be36600462001292565b62000679565b604051620000e29190620012b2565b62000144620001e436600462001318565b62000b0b565b348015620001f757600080fd5b506200020f62000209366004620011f2565b62000ba2565b6040516001600160a01b039091168152602001620000e2565b3480156200023557600080fd5b5062000144620002473660046200145b565b62000bdc565b3480156200025a57600080fd5b50620002726200026c366004620011f2565b62000ce3565b604051620000e29291906200149c565b3480156200028f57600080fd5b5062000144620002a1366004620014c8565b62000db1565b6060620002dd6040518060400160405280601081526020016f1cd95b1958dd1959081c1c9bda9958dd60821b8152508462000e29565b62000302604051806040016040528060018152602001606960f81b8152508362000e76565b600183151514620003305760405162461bcd60e51b8152600401620003279062001531565b60405180910390fd5b600082815481106200034657620003466200155f565b6000918252602082206001600290920201015460408051630bd9450b60e21b815290516001600160a01b0390921692632f65142c926004808401938290030181865afa1580156200039b573d6000803e3d6000fd5b505050506040513d6000823e601f3d908101601f19168201604052620003c59190810190620015ae565b9392505050565b6060600183151514620003f35760405162461bcd60e51b8152600401620003279062001531565b600082815481106200040957620004096200155f565b60009182526020822060016002909202010154604080516383a36a9160e01b815290516001600160a01b03909216926383a36a91926004808401938290030181865afa1580156200045e573d6000803e3d6000fd5b505050506040513d6000823e601f3d908101601f19168201604052620003c591908101906200168e565b620004ae604051806040016040528060028152602001615f6960f01b8152508262000e76565b60008181548110620004c457620004c46200155f565b6000918252602082206001600290920201015460408051631c86b66760e31b815290516001600160a01b039092169263e435b3389260048084019382900301818387803b1580156200051557600080fd5b505af11580156200052a573d6000803e3d6000fd5b5050505050565b6060600183151514620005585760405162461bcd60e51b8152600401620003279062001531565b600082815481106200056e576200056e6200155f565b60009182526020822060016002909202010154604080516338cc483160e01b815290516001600160a01b03909216926338cc4831926004808401938290030181865afa158015620005c3573d6000803e3d6000fd5b505050506040513d6000823e601f3d908101601f19168201604052620003c59190810190620017e0565b600081815481106200060357620006036200155f565b6000918252602090912060029091020160010154604051630548eaed60e41b81526001600160a01b0384811660048301529091169063548eaed090602401600060405180830381600087803b1580156200065c57600080fd5b505af115801562000671573d6000803e3d6000fd5b505050505050565b600080546060919067ffffffffffffffff8111156200069c576200069c6200135e565b604051908082528060200260200182016040528015620006d157816020015b6060815260200190600190039081620006bb5790505b5090506000805b60005481101562000b025760008181548110620006f957620006f96200155f565b60009182526020918290206001600290920201015460408051631127a41d60e31b815290516001600160a01b039092169263893d20e8926004808401938290030181865afa15801562000750573d6000803e3d6000fd5b505050506040513d601f19601f8201168201806040525081019062000776919062001885565b6001600160a01b0316856001600160a01b0316036200087d5760008181548110620007a557620007a56200155f565b90600052602060002090600202016000018054620007c390620018a5565b80601f0160208091040260200160405190810160405280929190818152602001828054620007f190620018a5565b8015620008425780601f10620008165761010080835404028352916020019162000842565b820191906000526020600020905b8154815290600101906020018083116200082457829003601f168201915b50505050508383815181106200085c576200085c6200155f565b602002602001018190525081806200087490620018e1565b92505062000aed565b60005b600082815481106200089657620008966200155f565b60009182526020822060016002909202010154604080516338cc483160e01b815290516001600160a01b03909216926338cc4831926004808401938290030181865afa158015620008eb573d6000803e3d6000fd5b505050506040513d6000823e601f3d908101601f19168201604052620009159190810190620017e0565b5181101562000aeb57600082815481106200093457620009346200155f565b60009182526020822060016002909202010154604080516338cc483160e01b815290516001600160a01b03909216926338cc4831926004808401938290030181865afa15801562000989573d6000803e3d6000fd5b505050506040513d6000823e601f3d908101601f19168201604052620009b39190810190620017e0565b8181518110620009c757620009c76200155f565b60200260200101516001600160a01b0316866001600160a01b03160362000ad65760008281548110620009fe57620009fe6200155f565b9060005260206000209060020201600001805462000a1c90620018a5565b80601f016020809104026020016040519081016040528092919081815260200182805462000a4a90620018a5565b801562000a9b5780601f1062000a6f5761010080835404028352916020019162000a9b565b820191906000526020600020905b81548152906001019060200180831162000a7d57829003601f168201915b505050505084848151811062000ab55762000ab56200155f565b6020026020010181905250828062000acd90620018e1565b93505062000aeb565b8062000ae281620018e1565b91505062000880565b505b8062000af981620018e1565b915050620006d8565b50909392505050565b6000818154811062000b215762000b216200155f565b600091825260209091206002909102016001015460405163160c24a360e21b81526001600160a01b038581166004830152848116602483015290911690635830928c9034906044016000604051808303818588803b15801562000b8357600080fd5b505af115801562000b98573d6000803e3d6000fd5b5050505050505050565b600080828154811062000bb95762000bb96200155f565b60009182526020909120600160029092020101546001600160a01b031692915050565b60408051808201909152606081526000602082015260005462000bff9062000ebf565b8260405160200162000c1392919062001909565b60408051601f1981840301815291815290825251339062000c349062001068565b6001600160a01b039091168152602001604051809103906000f08015801562000c61573d6000803e3d6000fd5b506001600160a01b0316602082015260008054600181018255908052815182916002027f290decd9548b62a8d60345a988386fc84ba6bc95484008f6362f93160ef3e5630190819062000cb590826200199a565b5060209190910151600190910180546001600160a01b0319166001600160a01b039092169190911790555050565b6000818154811062000cf457600080fd5b906000526020600020906002020160009150905080600001805462000d1990620018a5565b80601f016020809104026020016040519081016040528092919081815260200182805462000d4790620018a5565b801562000d985780601f1062000d6c5761010080835404028352916020019162000d98565b820191906000526020600020905b81548152906001019060200180831162000d7a57829003601f168201915b505050600190930154919250506001600160a01b031682565b6000828154811062000dc75762000dc76200155f565b6000918252602090912060016002909202010154604051631e3bf92760e01b81526001600160a01b0390911690631e3bf9279062000e0e9087908790869060040162001a67565b600060405180830381600087803b15801562000b8357600080fd5b62000e72828260405160240162000e4292919062001a9c565b60408051601f198184030181529190526020810180516001600160e01b031663c3b5563560e01b17905262000f59565b5050565b62000e72828260405160240162000e8f92919062001ac2565b60408051601f198184030181529190526020810180516001600160e01b0316632d839cb360e21b17905262000f59565b6060600062000ece8362000f67565b600101905060008167ffffffffffffffff81111562000ef15762000ef16200135e565b6040519080825280601f01601f19166020018201604052801562000f1c576020820181803683370190505b5090508181016020015b600019016f181899199a1a9b1b9c1cb0b131b232b360811b600a86061a8153600a850494508462000f2657509392505050565b62000f648162001047565b50565b60008072184f03e93ff9f4daa797ed6e38ed64bf6a1f0160401b831062000fa75772184f03e93ff9f4daa797ed6e38ed64bf6a1f0160401b830492506040015b6d04ee2d6d415b85acef8100000000831062000fd4576d04ee2d6d415b85acef8100000000830492506020015b662386f26fc10000831062000ff357662386f26fc10000830492506010015b6305f5e10083106200100c576305f5e100830492506008015b61271083106200102157612710830492506004015b6064831062001034576064830492506002015b600a831062001041576001015b92915050565b60006a636f6e736f6c652e6c6f679050600080835160208501845afa505050565b612ff68062001ae783390190565b600080604083850312156200108a57600080fd5b823580151581146200109b57600080fd5b946020939093013593505050565b602080825282518282018190526000919060409081850190868401855b828110156200110357815180516001600160a01b0390811686528782015116878601528501518585015260609093019290850190600101620010c6565b5091979650505050505050565b60005b838110156200112d57818101518382015260200162001113565b50506000910152565b600081518084526200115081602086016020860162001110565b601f01601f19169290920160200192915050565b60006020808301818452808551808352604092508286019150828160051b87010184880160005b83811015620011e457603f19898403018552815160608151818652620011b48287018262001136565b838b01516001600160a01b0316878c0152928901519589019590955250948701949250908601906001016200118b565b509098975050505050505050565b6000602082840312156200120557600080fd5b5035919050565b6020808252825182820181905260009190848201906040850190845b818110156200124f5783516001600160a01b03168352928401929184019160010162001228565b50909695505050505050565b6001600160a01b038116811462000f6457600080fd5b600080604083850312156200128557600080fd5b82356200109b816200125b565b600060208284031215620012a557600080fd5b8135620003c5816200125b565b6000602080830181845280855180835260408601915060408160051b870101925083870160005b828110156200130b57603f19888603018452620012f885835162001136565b94509285019290850190600101620012d9565b5092979650505050505050565b6000806000606084860312156200132e57600080fd5b83356200133b816200125b565b925060208401356200134d816200125b565b929592945050506040919091013590565b634e487b7160e01b600052604160045260246000fd5b6040516060810167ffffffffffffffff811182821017156200139a576200139a6200135e565b60405290565b604051601f8201601f1916810167ffffffffffffffff81118282101715620013cc57620013cc6200135e565b604052919050565b600067ffffffffffffffff821115620013f157620013f16200135e565b50601f01601f191660200190565b600082601f8301126200141157600080fd5b8135620014286200142282620013d4565b620013a0565b8181528460208386010111156200143e57600080fd5b816020850160208301376000918101602001919091529392505050565b6000602082840312156200146e57600080fd5b813567ffffffffffffffff8111156200148657600080fd5b6200149484828501620013ff565b949350505050565b604081526000620014b1604083018562001136565b905060018060a01b03831660208301529392505050565b60008060008060808587031215620014df57600080fd5b843567ffffffffffffffff811115620014f757600080fd5b6200150587828801620013ff565b9450506020850135925060408501359150606085013562001526816200125b565b939692955090935050565b602080825260149082015273141c9bda9958dd081b9bdd081cd95b1958dd195960621b604082015260600190565b634e487b7160e01b600052603260045260246000fd5b600067ffffffffffffffff8211156200159257620015926200135e565b5060051b60200190565b8051620015a9816200125b565b919050565b60006020808385031215620015c257600080fd5b825167ffffffffffffffff811115620015da57600080fd5b8301601f81018513620015ec57600080fd5b8051620015fd620014228262001575565b818152606091820283018401918482019190888411156200161d57600080fd5b938501935b83851015620016825780858a0312156200163c5760008081fd5b6200164662001374565b855162001653816200125b565b81528587015162001664816200125b565b81880152604086810151908201528352938401939185019162001622565b50979650505050505050565b60006020808385031215620016a257600080fd5b825167ffffffffffffffff80821115620016bb57600080fd5b818501915085601f830112620016d057600080fd5b8151620016e1620014228262001575565b81815260059190911b830184019084810190888311156200170157600080fd5b8585015b83811015620017d3578051858111156200171e57600080fd5b86016060818c03601f19011215620017365760008081fd5b6200174062001374565b8882015187811115620017535760008081fd5b8201603f81018d13620017665760008081fd5b8981015160406200177b6200142283620013d4565b8281528f82848601011115620017915760008081fd5b620017a2838e830184870162001110565b8452620017b18582016200159c565b848d015260609490940151938301939093525084525091860191860162001705565b5098975050505050505050565b60006020808385031215620017f457600080fd5b825167ffffffffffffffff8111156200180c57600080fd5b8301601f810185136200181e57600080fd5b80516200182f620014228262001575565b81815260059190911b820183019083810190878311156200184f57600080fd5b928401925b828410156200187a5783516200186a816200125b565b8252928401929084019062001854565b979650505050505050565b6000602082840312156200189857600080fd5b8151620003c5816200125b565b600181811c90821680620018ba57607f821691505b602082108103620018db57634e487b7160e01b600052602260045260246000fd5b50919050565b6000600182016200190257634e487b7160e01b600052601160045260246000fd5b5060010190565b600083516200191d81846020880162001110565b6201016960ed1b90830190815283516200193f81600384016020880162001110565b01600301949350505050565b601f8211156200199557600081815260208120601f850160051c81016020861015620019745750805b601f850160051c820191505b81811015620006715782815560010162001980565b505050565b815167ffffffffffffffff811115620019b757620019b76200135e565b620019cf81620019c88454620018a5565b846200194b565b602080601f83116001811462001a075760008415620019ee5750858301515b600019600386901b1c1916600185901b17855562000671565b600085815260208120601f198616915b8281101562001a385788860151825594840194600190910190840162001a17565b508582101562001a575787850151600019600388901b60f8161c191681555b5050505050600190811b01905550565b60608152600062001a7c606083018662001136565b6020830194909452506001600160a01b0391909116604090910152919050565b60408152600062001ab1604083018562001136565b905082151560208301529392505050565b60408152600062001ad7604083018562001136565b9050826020830152939250505056fe60806040526006805460ff60a01b191690553480156200001e57600080fd5b5060405162002ff638038062002ff683398101604081905262000041916200015c565b60408051808201909152600d81526c34b734ba34b0b61037bbb732b960991b6020820152620000719082620000d1565b600680546001600160a01b039092166001600160a01b03199283168117909155600480546001810182556000919091527f8a35acfbc15ff81a39ae7d344fd709f28e8600b4aa8c65c6b64bfe7fe36bd19b018054909216179055620001f0565b6200011e8282604051602401620000ea9291906200018e565b60408051601f198184030181529190526020810180516001600160e01b0390811663319af33360e01b179091526200012216565b5050565b62000138816200013b60201b620011901760201c565b50565b60006a636f6e736f6c652e6c6f679050600080835160208501845afa505050565b6000602082840312156200016f57600080fd5b81516001600160a01b03811681146200018757600080fd5b9392505050565b604081526000835180604084015260005b81811015620001be57602081870181015160608684010152016200019f565b50600060608285018101919091526001600160a01b03949094166020840152601f01601f191690910190910192915050565b612df680620002006000396000f3fe6080604052600436106100e85760003560e01c8063791114d41161008a5780638ecc352d116100595780638ecc352d146102ad578063a9ee6d34146102c3578063ba45b0b8146102e3578063e435b3381461031b57600080fd5b8063791114d41461020c57806383a36a9114610239578063893d20e81461025b5780638da5cb5b1461028d57600080fd5b806338cc4831116100c657806338cc483114610171578063548eaed01461019357806355d1ecd5146101b35780635830928c146101f957600080fd5b80631e3bf927146100ed57806327e235e31461010f5780632f65142c1461014f575b600080fd5b3480156100f957600080fd5b5061010d6101083660046127d3565b610330565b005b34801561011b57600080fd5b5061013c61012a36600461282e565b60016020526000908152604090205481565b6040519081526020015b60405180910390f35b34801561015b57600080fd5b50610164610612565b6040516101469190612852565b34801561017d57600080fd5b50610186610a7e565b60405161014691906128b7565b34801561019f57600080fd5b5061010d6101ae36600461282e565b610ae0565b3480156101bf57600080fd5b5061013c6101ce366004612904565b8151602081840181018051600080835293830195830195909520949052929092528152604090205481565b61010d610207366004612956565b610c5a565b34801561021857600080fd5b5061022c610227366004612984565b610d39565b60405161014691906129ed565b34801561024557600080fd5b5061024e610de5565b6040516101469190612a00565b34801561026757600080fd5b506006546001600160a01b03165b6040516001600160a01b039091168152602001610146565b34801561029957600080fd5b50600654610275906001600160a01b031681565b3480156102b957600080fd5b5061013c60035481565b3480156102cf57600080fd5b506102756102de366004612984565b6110a3565b3480156102ef57600080fd5b5061013c6102fe366004612956565b600260209081526000928352604080842090915290825290205481565b34801561032757600080fd5b5061010d6110cd565b6004546001106103985760405162461bcd60e51b815260206004820152602860248201527f5468657265206d757374206265206d6f7265207468616e206f6e65207061727460448201526769636970616e742160c01b60648201526084015b60405180910390fd5b600654600160a01b900460ff16156104075760405162461bcd60e51b815260206004820152602c60248201527f436f6e7472616374207761732063616c63756c617465642e2043616e206e6f7460448201526b10313290393296bab9b2b21760a11b606482015260840161038f565b600080846040516104189190612a8a565b90815260408051602092819003830190206001600160a01b03851660009081529252902054111561049f57816000846040516104549190612a8a565b90815260200160405180910390206000836001600160a01b03166001600160a01b0316815260200190815260200160002060008282546104949190612abc565b909155506105139050565b600580546001810182556000919091527f036b6384b5eca791c62761152d0c79bb0604c104a5fb6f4eb0703f3154bb3db0016104db8482612b58565b50816000846040516104ed9190612a8a565b90815260408051602092819003830190206001600160a01b038516600090815292529020555b6004546105209083612c18565b61052a9083612c3a565b6001600160a01b03821660009081526001602052604081208054909190610552908490612c61565b90915550600090505b60045481101561060c57816001600160a01b03166004828154811061058257610582612c89565b6000918252602090912001546001600160a01b0316146105fa576004546105a99084612c18565b60016000600484815481106105c0576105c0612c89565b60009182526020808320909101546001600160a01b03168352820192909252604001812080549091906105f4908490612c3a565b90915550505b8061060481612c9f565b91505061055b565b50505050565b6060600060035467ffffffffffffffff8111156106315761063161271b565b60405190808252806020026020018201604052801561067c57816020015b604080516060810182526000808252602080830182905292820152825260001990920191018161064f5790505b5090506000805b60045461069290600190612cb8565b811015610a765760006106a6826001612abc565b90505b600454811015610a6357600060026000600485815481106106cc576106cc612c89565b60009182526020808320909101546001600160a01b031683528201929092526040018120600480549192918590811061070757610707612c89565b60009182526020808320909101546001600160a01b031683528201929092526040019020541115610882576107606040518060400160405280600d81526020016c61646420656c656d656e74206960981b8152506111b1565b60405180606001604052806004848154811061077e5761077e612c89565b600091825260209182902001546001600160a01b03168252600480549290910191849081106107af576107af612c89565b9060005260206000200160009054906101000a90046001600160a01b03166001600160a01b0316815260200160026000600486815481106107f2576107f2612c89565b60009182526020808320909101546001600160a01b031683528201929092526040018120600480549192918690811061082d5761082d612c89565b60009182526020808320909101546001600160a01b031683528201929092526040019020549052845185908590811061086857610868612c89565b6020026020010181905250828061087e90612c9f565b9350505b6000600260006004848154811061089b5761089b612c89565b60009182526020808320909101546001600160a01b03168352820192909252604001812060048054919291869081106108d6576108d6612c89565b60009182526020808320909101546001600160a01b031683528201929092526040019020541115610a515761092f6040518060400160405280600d81526020016c30b2321032b632b6b2b73a103560991b8152506111b1565b60405180606001604052806004838154811061094d5761094d612c89565b600091825260209182902001546001600160a01b031682526004805492909101918590811061097e5761097e612c89565b9060005260206000200160009054906101000a90046001600160a01b03166001600160a01b0316815260200160026000600485815481106109c1576109c1612c89565b60009182526020808320909101546001600160a01b03168352820192909252604001812060048054919291879081106109fc576109fc612c89565b60009182526020808320909101546001600160a01b0316835282019290925260400190205490528451859085908110610a3757610a37612c89565b60200260200101819052508280610a4d90612c9f565b9350505b80610a5b81612c9f565b9150506106a9565b5080610a6e81612c9f565b915050610683565b509092915050565b60606004805480602002602001604051908101604052809291908181526020018280548015610ad657602002820191906000526020600020905b81546001600160a01b03168152600190910190602001808311610ab8575b5050505050905090565b60055460009015610b595760405162461bcd60e51b815260206004820152603960248201527f457870656e736573207765726520656e746572656420616c72656164792c207960448201527f6f752063616e277420616464207061727469636970616e747300000000000000606482015260840161038f565b60005b600454811015610bb857826001600160a01b031660048281548110610b8357610b83612c89565b6000918252602090912001546001600160a01b031603610ba65760019150610bb8565b80610bb081612c9f565b915050610b5c565b508015610c075760405162461bcd60e51b815260206004820152601a60248201527f5061727469636970616e742065786973747320616c7265616479000000000000604482015260640161038f565b50600480546001810182556000919091527f8a35acfbc15ff81a39ae7d344fd709f28e8600b4aa8c65c6b64bfe7fe36bd19b0180546001600160a01b0319166001600160a01b0392909216919091179055565b600080826001600160a01b03163460405160006040518083038185875af1925050503d8060008114610ca8576040519150601f19603f3d011682016040523d82523d6000602084013e610cad565b606091505b509150915081610cf65760405162461bcd60e51b81526020600482015260146024820152734661696c656420746f2073656e64206d6f6e657960601b604482015260640161038f565b6001600160a01b03808516600090815260026020908152604080832093871683529290529081208190556003805491610d2e83612ccb565b919050555050505050565b60058181548110610d4957600080fd5b906000526020600020016000915090508054610d6490612ad5565b80601f0160208091040260200160405190810160405280929190818152602001828054610d9090612ad5565b8015610ddd5780601f10610db257610100808354040283529160200191610ddd565b820191906000526020600020905b815481529060010190602001808311610dc057829003601f168201915b505050505081565b60055460609060009067ffffffffffffffff811115610e0657610e0661271b565b604051908082528060200260200182016040528015610e6457816020015b610e5160405180606001604052806060815260200160006001600160a01b03168152602001600081525090565b815260200190600190039081610e245790505b50905060005b60055481101561109d5760005b60045481101561108a5760008060058481548110610e9757610e97612c89565b90600052602060002001604051610eae9190612ce2565b9081526020016040518091039020600060048481548110610ed157610ed1612c89565b60009182526020808320909101546001600160a01b03168352820192909252604001902054111561107857604051806060016040528060058481548110610f1a57610f1a612c89565b906000526020600020018054610f2f90612ad5565b80601f0160208091040260200160405190810160405280929190818152602001828054610f5b90612ad5565b8015610fa85780601f10610f7d57610100808354040283529160200191610fa8565b820191906000526020600020905b815481529060010190602001808311610f8b57829003601f168201915b5050505050815260200160048381548110610fc557610fc5612c89565b60009182526020808320909101546001600160a01b0316835260058054939091019286908110610ff757610ff7612c89565b9060005260206000200160405161100e9190612ce2565b908152602001604051809103902060006004858154811061103157611031612c89565b60009182526020808320909101546001600160a01b031683528201929092526040019020549052835184908490811061106c5761106c612c89565b60200260200101819052505b8061108281612c9f565b915050610e77565b508061109581612c9f565b915050610e6a565b50919050565b600481815481106110b357600080fd5b6000918252602090912001546001600160a01b0316905081565b6000806110d86111f7565b156111305760405162461bcd60e51b815260206004820152602260248201527f5468657265206973206e6f2062616c616e63657320746f2063616c63756c6174604482015261652160f01b606482015260840161038f565b6111386111f7565b151560000361117957611149611268565b9150611153611770565b905081158015611161575080155b156111745761116e611f14565b15611179575b611130565b50506006805460ff60a01b1916600160a01b179055565b60006a636f6e736f6c652e6c6f679050600080835160208501845afa505050565b6111f4816040516024016111c591906129ed565b60408051601f198184030181529190526020810180516001600160e01b031663104c13eb60e21b1790526126bf565b50565b6000805b60045481101561126057600160006004838154811061121c5761121c612c89565b60009182526020808320909101546001600160a01b031683528201929092526040019020541561124e57600091505090565b8061125881612c9f565b9150506111fb565b506001905090565b6000806000905061129d6040518060400160405280600d81526020016c776970653262616c616e63657360981b8152506111b1565b60005b6004546112af90600190612cb8565b81101561109d5760006112c3826001612abc565b90505b60045481101561175d5760016000600484815481106112e7576112e7612c89565b60009182526020808320909101546001600160a01b031683528201929092526040019020541561174b576000600160006004848154811061132a5761132a612c89565b9060005260206000200160009054906101000a90046001600160a01b03166001600160a01b03166001600160a01b0316815260200190815260200160002054600160006004868154811061138057611380612c89565b60009182526020808320909101546001600160a01b031683528201929092526040019020546113af9190612c61565b90508060000361174957600060016000600486815481106113d2576113d2612c89565b60009182526020808320909101546001600160a01b03168352820192909252604001902054121561155857600160006004858154811061141457611414612c89565b60009182526020808320909101546001600160a01b0316835282019290925260400190205461144590600019612d58565b600160006004868154811061145c5761145c612c89565b60009182526020808320909101546001600160a01b031683528201929092526040018120919091556004805460019291908690811061149d5761149d612c89565b9060005260206000200160009054906101000a90046001600160a01b03166001600160a01b03166001600160a01b031681526020019081526020016000205460026000600486815481106114f3576114f3612c89565b60009182526020808320909101546001600160a01b031683528201929092526040018120600480549192918690811061152e5761152e612c89565b60009182526020808320909101546001600160a01b031683528201929092526040019020556116af565b600160006004848154811061156f5761156f612c89565b60009182526020808320909101546001600160a01b031683528201929092526040019020546115a090600019612d58565b60016000600485815481106115b7576115b7612c89565b60009182526020808320909101546001600160a01b03168352820192909252604001812091909155600480546001929190859081106115f8576115f8612c89565b9060005260206000200160009054906101000a90046001600160a01b03166001600160a01b03166001600160a01b0316815260200190815260200160002054600260006004858154811061164e5761164e612c89565b60009182526020808320909101546001600160a01b031683528201929092526040018120600480549192918790811061168957611689612c89565b60009182526020808320909101546001600160a01b031683528201929092526040019020555b600060016000600486815481106116c8576116c8612c89565b60009182526020808320909101546001600160a01b031683528201929092526040018120919091556004805460019183918690811061170957611709612c89565b60009182526020808320909101546001600160a01b03168352820192909252604001812091909155600380549161173f83612c9f565b9190505550600193505b505b8061175581612c9f565b9150506112c6565b508061176881612c9f565b9150506112a0565b60008060008060006117a76040518060400160405280600e81526020016d77697065416e7942616c616e636560901b8152506111b1565b60005b6004546117b990600190612cb8565b811015611f0b576117e5604051806040016040528060038152602001620349d160ed1b815250826126c8565b60006117f2826001612abc565b90505b600454811015611ef857611824604051806040016040528060038152602001620351d160ed1b815250826126c8565b6000600160006004858154811061183d5761183d612c89565b60009182526020808320909101546001600160a01b031683528201929092526040019020541380156118aa57506000600160006004848154811061188357611883612c89565b60009182526020808320909101546001600160a01b03168352820192909252604001902054125b806119365750600060016000600485815481106118c9576118c9612c89565b60009182526020808320909101546001600160a01b0316835282019290925260400190205412801561193657506000600160006004848154811061190f5761190f612c89565b60009182526020808320909101546001600160a01b03168352820192909252604001902054135b15611ee6576119626040518060400160405280600681526020016518b2b91034b360d11b8152506111b1565b600160006004848154811061197957611979612c89565b60009182526020808320909101546001600160a01b031683528201929092526040018120546004805491975060019291849081106119b9576119b9612c89565b60009182526020808320909101546001600160a01b0316835282019290925260400181205494508512156119f6576119f385600019612d58565b94505b6000841215611a0e57611a0b84600019612d58565b93505b60006001600060048581548110611a2757611a27612c89565b60009182526020808320909101546001600160a01b03168352820192909252604001902054128015611a5857508385125b15611c7a57611a84604051806040016040528060068152602001651932379034b360d11b8152506111b1565b6001600060048481548110611a9b57611a9b612c89565b60009182526020808320909101546001600160a01b03168352820192909252604001902054611acc90600019612d58565b9550856002600060048581548110611ae657611ae6612c89565b60009182526020808320909101546001600160a01b0316835282019290925260400181206004805491929185908110611b2157611b21612c89565b60009182526020808320909101546001600160a01b031683528201929092526040018120919091556003805491611b5783612c9f565b91905055506001600060048381548110611b7357611b73612c89565b9060005260206000200160009054906101000a90046001600160a01b03166001600160a01b03166001600160a01b03168152602001908152602001600020546001600060048581548110611bc957611bc9612c89565b60009182526020808320909101546001600160a01b03168352820192909252604001902054611bf89190612c61565b6001600060048481548110611c0f57611c0f612c89565b60009182526020808320909101546001600160a01b0316835282019290925260400181209190915560048054600191839186908110611c5057611c50612c89565b60009182526020808320909101546001600160a01b03168352820192909252604001902055600192505b60006001600060048481548110611c9357611c93612c89565b60009182526020808320909101546001600160a01b03168352820192909252604001902054128015611cc457508484125b15611ee657611cf06040518060400160405280600681526020016519b2b91034b360d11b8152506111b1565b6001600060048381548110611d0757611d07612c89565b60009182526020808320909101546001600160a01b03168352820192909252604001902054611d3890600019612d58565b9550856002600060048481548110611d5257611d52612c89565b60009182526020808320909101546001600160a01b0316835282019290925260400181206004805491929186908110611d8d57611d8d612c89565b60009182526020808320909101546001600160a01b031683528201929092526040018120919091556003805491611dc383612c9f565b91905055506001600060048381548110611ddf57611ddf612c89565b9060005260206000200160009054906101000a90046001600160a01b03166001600160a01b03166001600160a01b03168152602001908152602001600020546001600060048581548110611e3557611e35612c89565b60009182526020808320909101546001600160a01b03168352820192909252604001902054611e649190612c61565b6001600060048581548110611e7b57611e7b612c89565b60009182526020808320909101546001600160a01b0316835282019290925260400181209190915560048054600191839185908110611ebc57611ebc612c89565b60009182526020808320909101546001600160a01b03168352820192909252604001902055600192505b80611ef081612c9f565b9150506117f5565b5080611f0381612c9f565b9150506117aa565b50949350505050565b60008060008060009050611f53604051806040016040528060148152602001737769706552656d61696e696e6742616c616e636560601b8152506111b1565b60005b600454611f6590600190612cb8565b8110156126b757611f91604051806040016040528060038152602001620349d160ed1b815250826126c8565b6000611f9e826001612abc565b90505b6004548110156126a457611fd0604051806040016040528060038152602001620351d160ed1b815250826126c8565b60006001600060048581548110611fe957611fe9612c89565b60009182526020808320909101546001600160a01b0316835282019290925260400190205413801561205657506000600160006004848154811061202f5761202f612c89565b60009182526020808320909101546001600160a01b03168352820192909252604001902054125b806120e257506000600160006004858154811061207557612075612c89565b60009182526020808320909101546001600160a01b031683528201929092526040019020541280156120e25750600060016000600484815481106120bb576120bb612c89565b60009182526020808320909101546001600160a01b03168352820192909252604001902054135b156126925761210e6040518060400160405280600681526020016518b2b91034b360d11b8152506111b1565b600160006004848154811061212557612125612c89565b60009182526020808320909101546001600160a01b0316835282019290925260400181205460048054919750600192918490811061216557612165612c89565b60009182526020808320909101546001600160a01b0316835282019290925260400181205494508512156121a25761219f85600019612d58565b94505b60008412156121ba576121b784600019612d58565b93505b600060016000600485815481106121d3576121d3612c89565b60009182526020808320909101546001600160a01b03168352820192909252604001902054121561242657612225604051806040016040528060068152602001651932379034b360d11b8152506111b1565b600160006004838154811061223c5761223c612c89565b9060005260206000200160009054906101000a90046001600160a01b03166001600160a01b03166001600160a01b0316815260200190815260200160002054600260006004858154811061229257612292612c89565b60009182526020808320909101546001600160a01b03168352820192909252604001812060048054919291859081106122cd576122cd612c89565b60009182526020808320909101546001600160a01b03168352820192909252604001812091909155600380549161230383612c9f565b9190505550600160006004838154811061231f5761231f612c89565b9060005260206000200160009054906101000a90046001600160a01b03166001600160a01b03166001600160a01b0316815260200190815260200160002054600160006004858154811061237557612375612c89565b60009182526020808320909101546001600160a01b031683528201929092526040019020546123a49190612c61565b60016000600485815481106123bb576123bb612c89565b60009182526020808320909101546001600160a01b03168352820192909252604001812091909155600480546001918391859081106123fc576123fc612c89565b60009182526020808320909101546001600160a01b03168352820192909252604001902055600192505b6000600160006004848154811061243f5761243f612c89565b60009182526020808320909101546001600160a01b031683528201929092526040019020541215612692576124916040518060400160405280600681526020016519b2b91034b360d11b8152506111b1565b60016000600484815481106124a8576124a8612c89565b9060005260206000200160009054906101000a90046001600160a01b03166001600160a01b03166001600160a01b031681526020019081526020016000205460026000600484815481106124fe576124fe612c89565b60009182526020808320909101546001600160a01b031683528201929092526040018120600480549192918690811061253957612539612c89565b60009182526020808320909101546001600160a01b03168352820192909252604001812091909155600380549161256f83612c9f565b9190505550600160006004848154811061258b5761258b612c89565b9060005260206000200160009054906101000a90046001600160a01b03166001600160a01b03166001600160a01b031681526020019081526020016000205460016000600484815481106125e1576125e1612c89565b60009182526020808320909101546001600160a01b031683528201929092526040019020546126109190612c61565b600160006004848154811061262757612627612c89565b60009182526020808320909101546001600160a01b031683528201929092526040018120919091556004805460019183918690811061266857612668612c89565b60009182526020808320909101546001600160a01b03168352820192909252604001902055600192505b8061269c81612c9f565b915050611fa1565b50806126af81612c9f565b915050611f56565b509392505050565b6111f481611190565b61270d82826040516024016126de929190612d88565b60408051601f198184030181529190526020810180516001600160e01b0316632d839cb360e21b1790526126bf565b5050565b612719612daa565b565b634e487b7160e01b600052604160045260246000fd5b600082601f83011261274257600080fd5b813567ffffffffffffffff8082111561275d5761275d61271b565b604051601f8301601f19908116603f011681019082821181831017156127855761278561271b565b8160405283815286602085880101111561279e57600080fd5b836020870160208301376000602085830101528094505050505092915050565b6001600160a01b03811681146111f457600080fd5b6000806000606084860312156127e857600080fd5b833567ffffffffffffffff8111156127ff57600080fd5b61280b86828701612731565b935050602084013591506040840135612823816127be565b809150509250925092565b60006020828403121561284057600080fd5b813561284b816127be565b9392505050565b602080825282518282018190526000919060409081850190868401855b828110156128aa57815180516001600160a01b039081168652878201511687860152850151858501526060909301929085019060010161286f565b5091979650505050505050565b6020808252825182820181905260009190848201906040850190845b818110156128f85783516001600160a01b0316835292840192918401916001016128d3565b50909695505050505050565b6000806040838503121561291757600080fd5b823567ffffffffffffffff81111561292e57600080fd5b61293a85828601612731565b925050602083013561294b816127be565b809150509250929050565b6000806040838503121561296957600080fd5b8235612974816127be565b9150602083013561294b816127be565b60006020828403121561299657600080fd5b5035919050565b60005b838110156129b85781810151838201526020016129a0565b50506000910152565b600081518084526129d981602086016020860161299d565b601f01601f19169290920160200192915050565b60208152600061284b60208301846129c1565b60006020808301818452808551808352604092508286019150828160051b87010184880160005b83811015612a7c57603f19898403018552815160608151818652612a4d828701826129c1565b838b01516001600160a01b0316878c015292890151958901959095525094870194925090860190600101612a27565b509098975050505050505050565b60008251612a9c81846020870161299d565b9190910192915050565b634e487b7160e01b600052601160045260246000fd5b80820180821115612acf57612acf612aa6565b92915050565b600181811c90821680612ae957607f821691505b60208210810361109d57634e487b7160e01b600052602260045260246000fd5b601f821115612b5357600081815260208120601f850160051c81016020861015612b305750805b601f850160051c820191505b81811015612b4f57828155600101612b3c565b5050505b505050565b815167ffffffffffffffff811115612b7257612b7261271b565b612b8681612b808454612ad5565b84612b09565b602080601f831160018114612bbb5760008415612ba35750858301515b600019600386901b1c1916600185901b178555612b4f565b600085815260208120601f198616915b82811015612bea57888601518255948401946001909101908401612bcb565b5085821015612c085787850151600019600388901b60f8161c191681555b5050505050600190811b01905550565b600082612c3557634e487b7160e01b600052601260045260246000fd5b500490565b8181036000831280158383131683831282161715612c5a57612c5a612aa6565b5092915050565b8082018281126000831280158216821582161715612c8157612c81612aa6565b505092915050565b634e487b7160e01b600052603260045260246000fd5b600060018201612cb157612cb1612aa6565b5060010190565b81810381811115612acf57612acf612aa6565b600081612cda57612cda612aa6565b506000190190565b6000808354612cf081612ad5565b60018281168015612d085760018114612d1d57612d4c565b60ff1984168752821515830287019450612d4c565b8760005260208060002060005b85811015612d435781548a820152908401908201612d2a565b50505082870194505b50929695505050505050565b80820260008212600160ff1b84141615612d7457612d74612aa6565b8181058314821517612acf57612acf612aa6565b604081526000612d9b60408301856129c1565b90508260208301529392505050565b634e487b7160e01b600052605160045260246000fdfea26469706673582212204e0884df78c5dab104105fe26818546b51b483a00af39f8b14a67fbd3e437d9a64736f6c63430008140033a2646970667358221220bc93bbb47cf4b381cae9d073b2ba976c6c051272f82e280a642c3f74a8c5645c64736f6c63430008140033",
  "devdoc": {
    "kind": "dev",
    "methods": {},
    "version": 1
  },
  "userdoc": {
    "kind": "user",
    "methods": {},
    "version": 1
  },
  "storageLayout": {
    "storage": [
      {
        "astId": 2218,
        "contract": "contracts/Project.sol:Project",
        "label": "projectArr",
        "offset": 0,
        "slot": "0",
        "type": "t_array(t_struct(ProjectElement)2209_storage)dyn_storage"
      }
    ],
    "types": {
      "t_array(t_struct(ProjectElement)2209_storage)dyn_storage": {
        "base": "t_struct(ProjectElement)2209_storage",
        "encoding": "dynamic_array",
        "label": "struct Project.ProjectElement[]",
        "numberOfBytes": "32"
      },
      "t_contract(SplitCoin)3920": {
        "encoding": "inplace",
        "label": "contract SplitCoin",
        "numberOfBytes": "20"
      },
      "t_string_storage": {
        "encoding": "bytes",
        "label": "string",
        "numberOfBytes": "32"
      },
      "t_struct(ProjectElement)2209_storage": {
        "encoding": "inplace",
        "label": "struct Project.ProjectElement",
        "members": [
          {
            "astId": 2205,
            "contract": "contracts/Project.sol:Project",
            "label": "projectDesc",
            "offset": 0,
            "slot": "0",
            "type": "t_string_storage"
          },
          {
            "astId": 2208,
            "contract": "contracts/Project.sol:Project",
            "label": "splitCoin",
            "offset": 0,
            "slot": "1",
            "type": "t_contract(SplitCoin)3920"
          }
        ],
        "numberOfBytes": "64"
      }
    }
  }
}